:10000000A2C10000BCC10000BAC10000B8C100001C
:10001000B6C10000B4C10000B2C10000B0C1000010
:10002000AEC10000ACC10000AAC100005BC6000068
:10003000FFC60000A4C10000A2C10000A0C10000D2
:100040009EC100009CC100009AC100001CC30000BA
:1000500096C1000094C1000092C1000038C30000A6
:100060008EC100008CC100008AC1000088C1000060
:1000700086C100001E03017777772E656E74726F5C
:10008000706963656E67696E656572696E672E6318
:100090006F6D000A000000000003061E001400033C
:1000A0000057494E55534200000000000000000078
:1000B000000A00000000000306CE00080001000155
:1000C0000024000800020000001C0014000300557A
:1000D0005342534552000000000000000000000899
:1000E0000002000200A0001400030057494E5553BF
:1000F000420000000000000000000084000400072F
:10010000002A00440065007600690063006500492C
:10011000006E007400650072006600610063006597
:100120000047005500490044007300000050007B68
:1001300000390034006500370038006400390033AE
:10014000002D0034006300620062002D003400388E
:1001500000310066002D0062003500340032002DB1
:100160000061003700340037003400300064003391
:100170000061003700310033007D000000000036D0
:1001800003410072006400750069006E006F00207A
:100190000055004E004F0020005200330020007731
:1001A0000069007400680020005700650062005577
:1001B000005300420000001E0341007200640075FD
:1001C0000069006E006F00200055004E004F0020B7
:1001D00000520033000000280341007200640075E3
:1001E0000069006E006F00200077006900740068ED
:1001F00000200057006500620055005300420000D7
:10020000003203410072006400750069006E006FE7
:1002100000200028007700770077002E0061007230
:10022000006400750069006E006F002E00630063BB
:10023000002900000004030904090227000101004D
:10024000C0320904000003FF000000070581030815
:1002500000FF070502024000050705830240000574
:1002600009024F00030100C032080B000202020124
:10027000000904000001020201000524001001042D
:100280002402060524060001070581030800FF0972
:10029000040100020A0000000705020240000507F1
:1002A0000583024000050904020000FF000000056C
:1002B0000F3900021C100500DF60DDD88945C74CEE
:1002C0009CD2659D9E648A9F000003061E00450027
:1002D0001810050038B60834A909A0478BFDA07690
:1002E0008815B66500014200050F3900021C100593
:1002F00000DF60DDD88945C74C9CD2659D9E648A2D
:100300009F00000306CE0045001810050038B6080F
:1003100034A909A0478BFDA0768815B66500014277
:10032000001201100200000008B904F10A020001E5
:1003300002DC0112011002EF020108412343000216
:10034000000102DC010011241FBECFEFD2E0DEBFAE
:10035000CDBF11E0A0E0B1E0EEEFF4E102C0059006
:100360000D92AE32B107D9F712E0AEE2B1E001C0B2
:100370001D92A535B107E1F75ED00C947D0A40CE01
:10038000FC01A081B1816C93808191810196918360
:100390008083268137818217930721F48481958198
:1003A000918380832FB7F8948285938501969387F4
:1003B00082872FBF0895FC01A281B3818D91B38301
:1003C000A28326813781A217B30721F424813581C6
:1003D000338322839FB7F8942285338521503040A0
:1003E000338722879FBF089584B7877F84BF88E1C2
:1003F0000FB6F89480936000109260000FBE90E0FA
:1004000080E80FB6F89480936100909361000FBE6E
:100410008AB180638AB98BB180638BB954D483E08D
:1004200085BD82E084BD16BC99EF97BD80936E00B8
:100430005F9A579A0895D8DF85E490E00E94670A92
:10044000817080934802E0E3F1E02FB7F8948CE3E9
:1004500091E09183808393838283958384838CEB63
:1004600091E09783868380E890E091878087138668
:1004700012862FBFECEBF1E04FB7F89428EC31E097
:1004800031832083338322833583248328E432E03D
:100490003783268391878087138612864FBF78948F
:1004A00013E08FB7F89420913A0130913B018FBF50
:1004B00080913801909139012817390749F080E07F
:1004C00091E0B3D7BC0197FD03C080E391E058DF12
:1004D0002FB7F8948091C6019091C7012FBF009764
:1004E00011F11093E9002091E80020FF1CC05D98F5
:1004F00010932F018034910510F08FE390E0082FC6
:10050000C0E0D0E00EC0E091BE01F091BF0180E0FC
:1005100091E0608120D72196882329F48CEB91E02B
:100520004ADF0C1781F78091C80085FF15C02FB7EF
:10053000F89480913A0190913B012FBF009761F0B0
:100540005C9810932E0180E391E035DF9091C80014
:1005500095FFFCCF8093CE0080E091E04FD710D67E
:10056000A0CF80E091E0D3C6E8EEF0E08081877F05
:1005700080830BD380E091E0CAC680914D02803425
:1005800009F454C0803C09F07BC080914E02823453
:1005900021F0853409F06EC017C08091510290910E
:1005A00052028230910509F065C080914F0290910E
:1005B0005002009709F05EC08091E800877F809329
:1005C000E80084E790E017C08091510290915202B8
:1005D0008730910529F08830910509F04BC014C08F
:1005E0008091E800877F8093E8008091480288230B
:1005F00029F083E990E06EE170E004C081EB90E0C7
:100600006EEC70E0E9D1C1C280914F02909150022E
:10061000009731F48091E800877F8093E8002AC03A
:100620008091EB0080628093EB0024C080914E02A9
:10063000823401F5809151029091520283309105EC
:10064000C9F48091E800877F8093E80060914F02B1
:10065000709150028091480290E08617970749F008
:1006600061706093480285E490E039D78ED2DED283
:1006700001C08BD28091EB0080628093EB000895E3
:1006800080E091E098C51F920F920FB60F9211244F
:100690008F9380912F01882341F080912F01815009
:1006A00080932F01882309F45D9A80912E0188237D
:1006B00041F080912E01815080932E01882309F40E
:1006C0005C9A8F910F900FBE0F901F9018951F92FC
:1006D0000F920FB60F9211242F933F934F935F9376
:1006E0006F937F938F939F93AF93BF93EF93FF93FA
:1006F0006091CE008EB3843089F48FB7F894209146
:10070000C6013091C7018FBF8091C4019091C5018E
:100710002817390719F08CEB91E032DEFF91EF9149
:10072000BF91AF919F918F917F916F915F914F9109
:100730003F912F910F900FBE0F901F9018950F9320
:100740001F93CF938C01DC015996EC915997E1509E
:10075000E23028F4F0E0E55EFE4FC08101C0C0E069
:10076000F801808D823009F4C860D8015A968C91C6
:100770005A97873031F0883031F0863029F4C260E2
:1007800003C0C46001C0C6605B9A1092C900109299
:10079000C8001092CA00F801248935894689578912
:1007A0002030F1EE3F07F0E04F07F0E05F0781F007
:1007B000DA01C901B695A7959795879580589B470B
:1007C000A14EBF4FBC01CD0160D62150304002C0C8
:1007D00020E130E03093CD002093CC00C093CA00DC
:1007E000F80184899589A689B7898030F1EE9F0741
:1007F000F0E0AF07F0E0BF0711F480E001C082E055
:100800008093C80088E98093C9005B98CF911F91BD
:100810000F910895FC01208920FF02C05F98089580
:100820005F9A08959230B1F1933020F4913009F03D
:1008300063C007C0933009F43AC09F3009F05CC030
:1008400016C080914802882349F08BB190E2892735
:100850008BB982E190E0E1E2F3E052C08BB190E32A
:1008600089278BB982E190E0E3E3F3E049C080910E
:100870004802882349F0E1EBF2E0849190E02BB14B
:1008800030E223272BB904C0EAEEF2E0849190E035
:10089000329736C080914802882349F18BB190E2AB
:1008A00089278BB987E290E0E9E3F2E029C0813043
:1008B00041F0813018F08230F9F40DC0E5E3F2E048
:1008C00013C080914802882319F0E7EDF1E00CC0D5
:1008D000E1E0F2E009C080914802882319F0EFE7D7
:1008E000F1E002C0E7EBF1E0849190E009C08FE411
:1008F00090E0E0E6F2E004C080E090E0E0E0F0E0CC
:10090000DA011196FC93EE930895209153023091F1
:1009100054022617370728F4B901582F492F20E031
:100920003EC061157105C9F72091E8002E7720932C
:10093000E800F3CF8EB3882309F448C0853009F46A
:1009400047C08091E80083FD3FC08091E80082FDB0
:1009500035C08091E80080FF22C02091F20030E095
:10096000E52FF42F2E1B3F0B05C081918093F100E2
:1009700061507040CF01820F931F6115710519F00E
:100980008830910590F321E08830910509F020E04E
:100990008091E8008E778093E8005E2F4F2F6115DD
:1009A000710541F6222331F609C08EB3882371F018
:1009B000853071F08091E80083FD0CC08091E800E3
:1009C00082FFF3CF80E0089581E0089582E00895EA
:1009D00083E0089581E008952091530230915402FC
:1009E0002617370728F4B901582F492F20E03FC0B8
:1009F00061157105C9F72091E8002E772093E80072
:100A0000F3CF8EB3882309F449C0853009F448C078
:100A10008091E80083FD40C08091E80082FD36C0EF
:100A20008091E80080FF23C02091F20030E0E52FA4
:100A3000F42F2E1B3F0B06C084918093F10031965A
:100A400061507040C9018E0F9F1F6115710519F02B
:100A50008830910588F321E08830910509F020E085
:100A60008091E8008E778093E8005E2F4F2F61150C
:100A7000710539F6222329F609C08EB3882371F057
:100A8000853071F08091E80083FD0CC08091E80012
:100A900082FFF3CF80E0089581E0089582E0089519
:100AA00083E0089581E00895982F2AC09093E9008B
:100AB000981739F07091EC002091ED005091F00002
:100AC00003C0242F762F50E021FF19C03091EB0096
:100AD0003E7F3093EB003091ED003D7F3093ED0091
:100AE0003091EB0031603093EB007093EC00209379
:100AF000ED005093F0002091EE0027FF08C09F5FAB
:100B00009530A0F28F708093E90081E0089580E035
:100B100008950F931F93CF93DF93162FEC0100E0FE
:100B20002AC09881992329F16B81E981FA812C816E
:100B3000892F8F70853018F56295660F660F607C7F
:100B4000991F9927991F692B223010F096E001C058
:100B500092E028E030E040E003C04F5F220F331FF7
:100B60002E173F07D0F34295407F492B9DDF882306
:100B700031F00F5F25960117A1F681E001C080E0FA
:100B8000DF91CF911F910F91089580914D0287FFC2
:100B900011C003C08EB38823B1F08091E80082FFBA
:100BA000F9CF8091E8008B778093E80008958EB3A9
:100BB000882349F08091E80080FFF9CF8091E80018
:100BC0008E778093E80008958091E4009091E5008D
:100BD00045E601C0C9012091EC0020FF22C0209110
:100BE000E80020FD14C02EB3222399F0253099F09F
:100BF0002091EB0025FD11C02091E4003091E5002B
:100C00002817390741F3415029F784E0089580E01F
:100C1000089582E0089583E0089581E0089580E0DA
:100C200008952091E80022FFDECFF9CF55D057D0AC
:100C3000E0EEF0E0808181608083E8EDF0E080818B
:100C40008F77808319BCE3E6F0E080818160808348
:100C500010924C02089540D042D08091D8008F77F6
:100C60008093D8008091D80080688093D8008091CC
:100C7000D8008F7D8093D80084E089BD86E089BD4F
:100C800009B400FEFDCF1EBA1092490210924B0229
:100C900010924A0280E060E042E006DF8091E100CD
:100CA0008E7F8093E1008091E20081608093E2007A
:100CB0008091E20088608093E2008091E0008E7F66
:100CC0008093E0000895E3E6F0E080818E7F8083EA
:100CD00081E080934C02BFCF1092E2000895109201
:100CE000E10008951F920F920FB60F9211242F93D7
:100CF0003F934F935F936F937F938F939F93AF93A4
:100D0000BF93EF93FF938091E10082FF0AC080912F
:100D1000E20082FF06C08091E1008B7F8093E100BA
:100D20002ED28091E10080FF16C08091E20080FF0A
:100D300012C08091E2008E7F8093E2008091E200F9
:100D400080618093E2008091D80080628093D80017
:100D500019BC1EBA09DC8091E10084FF2EC080918D
:100D6000E20084FF2AC084E089BD86E089BD09B421
:100D700000FEFDCF8091D8008F7D8093D8008091B8
:100D8000E1008F7E8093E1008091E2008F7E80936E
:100D9000E2008091E20081608093E200809149024C
:100DA000882311F084E007C08091E30087FF02C030
:100DB00083E001C081E08EBBE2D18091E10083FF3E
:100DC00026C08091E20083FF22C08091E100877FEE
:100DD0008093E10082E08EBB109249028091E10095
:100DE0008E7F8093E1008091E2008E7F8093E2000D
:100DF0008091E20080618093E20080E060E042E068
:100E000053DE8091F00088608093F000B8D1FF91AC
:100E1000EF91BF91AF919F918F917F916F915F9172
:100E20004F913F912F910F900FBE0F901F901895EB
:100E30001F920F920FB60F9211242F933F934F934F
:100E40005F936F937F938F939F93AF93BF93CF9352
:100E5000EF93FF93C091E900CF708091EC00109266
:100E6000E9008091F000877F8093F00078941BD098
:100E70001092E9008091F00088608093F000C093A8
:100E8000E900FF91EF91CF91BF91AF919F918F9129
:100E90007F916F915F914F913F912F910F900FBE76
:100EA0000F901F9018951F93CF93DF93CDB7DEB7A8
:100EB000AC970FB6F894DEBF0FBECDBF80E0EDE477
:100EC000F2E09091F10091938F5F8830D1F755DB7C
:100ED0008091E80083FF3BC180914D0220914E023A
:100EE000253009F48AC0263040F42130B9F1213090
:100EF00070F0233009F02BC131C0283009F4FAC05A
:100F0000293009F409C1263009F021C198C0803880
:100F100021F0823809F01BC108C080914A029091EB
:100F20004B02992389F082600FC0809151028F702B
:100F3000853008F00CC18093E9009091EB0081E0CE
:100F400095FF80E01092E9009091E800977F9093E0
:100F5000E8008093F1001092F100D7C0882319F0C7
:100F6000823009F0F4C090E08F719070009729F002
:100F70008230910509F0EBC00BC080914F028130A7
:100F800009F0E5C0233009F080E080934B022FC0C8
:100F900080914F02882359F5209151022F70822FA2
:100FA0008150843008F0D3C02093E9008091EB0099
:100FB00080FF1DC080914E02833021F48091EB00B0
:100FC000806213C08091EB0080618093EB0081E030
:100FD00090E002C0880F991F2A95E2F78093EA00FB
:100FE0001092EA008091EB0088608093EB001092F1
:100FF000E9008091E800877F8BC0882309F0A7C0B3
:1010000010914F021F778091E3008078812B8093AD
:10101000E3008091E800877F8093E800B6DD80914F
:10102000E80080FFFCCF8091E30080688093E300BC
:10103000112311F083E001C082E08EBB88C080588C
:10104000823008F084C080914F029091500223E0DA
:101050008C3D9207A9F583E08C838AE28B835FB78E
:10106000F894DE01139680E090E04EE061E2E42F18
:10107000F0E060935700E49180FF03C0E295EF70C9
:101080004F5FEF702E2F30E0EA3018F0295C3F4FB1
:1010900002C0205D3F4F13963C932E93129701960A
:1010A00012968431910519F75FBF8091E800877F20
:1010B0008093E800CE0103966AE270E026DC14C05B
:1010C0006091510270915202AE014F5F5F4FAADBF7
:1010D000BC01009709F43BC08091E800877F8093B2
:1010E000E80089819A8178DC8091E8008B77809391
:1010F000E8002DC0803859F58091E800877F809303
:10110000E800809149028093F1008091E8008E7799
:101110008093E8003ADD1BC08823C9F490914F0208
:101120009230A8F48091E800877F8093E800909344
:1011300049022BDD80914902882321F48091E3004C
:1011400087FF02C084E001C081E08EBB0ADA809193
:10115000E80083FF0AC08091E800877F8093E80061
:101160008091EB0080628093EB00AC960FB6F89410
:10117000DEBF0FBECDBFDF91CF911F9108950895BF
:10118000CF938EB38823A9F08091E9008F7090915E
:10119000EC0090FF02C0C0E801C0C0E0C82B109274
:1011A000E9008091E80083FF01C07DDECF70C0932D
:1011B000E900CF910895CF93DF93EC018091E8008F
:1011C00083FFA2C0888190E02091510230915202A9
:1011D0002817390709F098C080914E02813269F0D2
:1011E000823220F4803209F08FC03CC0823209F490
:1011F0006AC0833209F088C079C080914D02813A7B
:1012000009F082C08091E800877F8093E800809198
:10121000E80080FFFCCF8C899D89AE89BF898093CF
:10122000F100492F5A2F6B2F77274093F100AD0122
:10123000662777274093F1008B2F9927AA27BB2792
:101240008093F100888D8093F100898D8093F10067
:101250008A8D8093F1008091E8008E778093E8007A
:1012600094DC52C080914D02813209F04DC08091D2
:10127000E800877F8093E80004C08EB3882309F4D8
:1012800043C08091E80082FFF8CF3091F1002091B7
:10129000F1009091F1008091F1003C8B2D8B9E8BA1
:1012A0008F8B8091F100888F8091F100898F8091E0
:1012B000F1008A8F8091E8008B778093E80065DCED
:1012C000CE013DDA21C080914D028132E9F4809156
:1012D000E800877F8093E80058DC80914F0290916E
:1012E0005002998B888BCE0195DA0EC080914D0209
:1012F000813251F48091E800877F8093E80045DCDB
:10130000CE0160914F02C0D0DF91CF910895CF936D
:10131000DF93EC014096FC018BE0DF011D928A9582
:10132000E9F782E08C83898783E08E87CE0101967E
:1013300061E0EFDB882359F0CE01069661E0E9DB3E
:10134000882329F0CE010B9661E0E3DB01C080E049
:10135000DF91CF910895CF93FC01C62F8EB38430D7
:10136000E9F44489558966897789411551056105F4
:101370007105A1F081818F708093E9008091E80070
:1013800085FD08C08091E8008E778093E8001CDC22
:10139000882329F4C093F10080E001C082E0CF915E
:1013A0000895FC018EB3843019F544895589668906
:1013B00077894115510561057105D1F081818F70E3
:1013C0008093E9008091F2008823A1F09091E800D9
:1013D0008091E8008E778093E80095FD0DC0F4DBE6
:1013E000882359F49091E8009E779093E80008953F
:1013F00082E0089580E0089580E008952EB32430BF
:1014000099F4FC014489558966897789411551050C
:101410006105710549F021812F702093E900209129
:10142000E80020FF01C0BDCF0895FC018EB38430D9
:1014300029F54489558966897789411551056105E2
:101440007105E1F086818F708093E9008091E8005A
:1014500082FF17C08091F200882321F08091F10073
:1014600090E002C08FEF9FEF2091F200222359F409
:101470002091E8002B772093E80008958FEF9FEFED
:1014800008958FEF9FEF08950895A1E21A2EAA1BE9
:10149000BB1BFD010DC0AA1FBB1FEE1FFF1FA21724
:1014A000B307E407F50720F0A21BB30BE40BF50B21
:1014B000661F771F881F991F1A9469F760957095AA
:1014C000809590959B01AC01BD01CF010895F999DC
:1014D000FECF92BD81BDF89A992780B50895262F39
:1014E000F999FECF1FBA92BD81BD20BD0FB6F89409
:0E14F000FA9AF99A0FBE01960895F894FFCF6C
:1014FE00008340000001024000000181080000014D
:10150E0000000000000000000000003020A12000BC
:0E151E000000000200A101000000000000001B
:00000001FF
