:10000000A3C10000BDC10000BBC10000B9C1000018
:10001000B7C10000B5C10000B3C10000B1C100000C
:10002000AFC10000ADC10000ABC100005CC6000064
:1000300000C70000A5C10000A3C10000A1C10000CD
:100040009FC100009DC100009BC100001DC30000B6
:1000500097C1000095C1000093C1000039C30000A2
:100060008FC100008DC100008BC1000089C100005C
:1000700087C100001E03017777772E656E74726F5B
:10008000706963656E67696E656572696E672E6318
:100090006F6D000A000000000003061E001400033C
:1000A0000057494E55534200000000000000000078
:1000B000000A00000000000306CE00080001000155
:1000C0000024000800020000001C0014000300557A
:1000D0005342534552000000000000000000000899
:1000E0000002000200A0001400030057494E5553BF
:1000F000420000000000000000000084000400072F
:10010000002A00440065007600690063006500492C
:10011000006E007400650072006600610063006597
:100120000047005500490044007300000050007B68
:1001300000390034006500370038006400390033AE
:10014000002D0034006300620062002D003400388E
:1001500000310066002D0062003500340032002DB1
:100160000061003700340037003400300064003391
:100170000061003700310033007D00000000000006
:1001800083400000010240000001810800000100DE
:10019000000000000000000000001E03410072008B
:1001A0006400750069006E006F00200055004E006D
:1001B0004F0020005200330000001E034100720077
:1001C0006400750069006E006F00200055004E004D
:1001D0004F0020005200330000002803410072004D
:1001E0006400750069006E006F00200077006900F0
:1001F000740068002000570065006200550053003D
:100200004200000032034100720064007500690082
:100210006E006F00200028007700770077002E0026
:10022000610072006400750069006E006F002E00AE
:100230006300630029000000040309040902270089
:10024000010100C0320904000003FF00000007059F
:1002500081030800FF07050202400005070583022D
:1002600040000509024F00030100C032080B0002E4
:10027000020201000904000001020201000524003D
:100280001001042402060524060001070581030865
:1002900000FF09040100020A0000000705020240F5
:1002A0000005070583024000050904020000FF0065
:1002B0000000050F3900021C100500DF60DDD88941
:1002C00045C74C9CD2659D9E648A9F000003061E14
:1002D0000045001810050038B60834A909A0478B5E
:1002E000FDA0768815B66500014200050F390002B1
:1002F0001C100500DF60DDD88945C74C9CD2659D88
:100300009E648A9F00000306CE0045001810050079
:1003100038B60834A909A0478BFDA0768815B665C4
:10032000000142001201100200000008B904F10AA5
:1003300002000102DC0112011002EF020108412358
:10034000430002000102DC0111241FBECFEFD2E006
:10035000DEBFCDBF11E0A0E0B1E0E0E0F5E102C01A
:1003600005900D92A231B107D9F712E0A2E1B1E0F8
:1003700001C01D92A933B107E1F75ED00C947E0A4B
:100380003FCEFC01A081B1816C9380819181019667
:1003900091838083268137818217930721F484819A
:1003A0009581918380832FB7F894828593850196F8
:1003B000938782872FBF0895FC01A281B3818D911D
:1003C000B383A28326813781A217B30721F4248146
:1003D0003581338322839FB7F8942285338521505A
:1003E0003040338722879FBF089584B7877F84BFBB
:1003F00088E10FB6F89480936000109260000FBE01
:1004000090E080E80FB6F8948093610090936100CB
:100410000FBE8AB180638AB98BB180638BB954D423
:1004200083E085BD82E084BD16BC99EF97BD8093C3
:100430006E005F9A579A0895D8DF85E490E00E9495
:10044000680A817080932C02E4E1F1E02FB7F89400
:1004500080E291E091838083938382839583848378
:1004600080EA91E09783868380E890E09187808797
:10047000138612862FBFE0EAF1E04FB7F8942CEA1A
:1004800031E03183208333832283358324832CE23C
:1004900032E03783268391878087138612864FBF89
:1004A000789413E08FB7F89420911E0130911F01CA
:1004B0008FBF80911C0190911D012817390749F0C9
:1004C0008FE791E0B3D7BC0197FD03C084E191E0D1
:1004D00058DF2FB7F8948091AA019091AB012FBFFC
:1004E000009711F11093E9002091E80020FF1CC053
:1004F0005D98109313018034910510F08FE390E024
:10050000082FC0E0D0E00EC0E091A201F091A3015D
:100510008FE791E0608120D72196882329F480EA33
:1005200091E04ADF0C1781F78091C80085FF15C064
:100530002FB7F89480911E0190911F012FBF009753
:1005400061F05C981093120184E191E035DF9091A5
:10055000C80095FFFCCF8093CE008FE791E04FD786
:1005600010D6A0CF8FE791E0D3C6E8EEF0E080810F
:10057000877F80830BD38FE791E0CAC680913102D9
:10058000803409F454C0803C09F07BC08091320271
:10059000823421F0853409F06EC017C08091350295
:1005A000909136028230910509F065C08091330246
:1005B00090913402009709F05EC08091E800877F37
:1005C0008093E80084E790E017C080913502909115
:1005D00036028730910529F08830910509F04BC02B
:1005E00014C08091E800877F8093E80080912C02FE
:1005F000882329F083E990E06EE170E004C081EB8C
:1006000090E06EEC70E0E9D1C1C28091330290912C
:100610003402009731F48091E800877F8093E800EE
:100620002AC08091EB0080628093EB0024C080910F
:100630003202823401F58091350290913602833086
:100640009105C9F48091E800877F8093E80060916C
:1006500033027091340280912C0290E08617970744
:1006600049F0617060932C0285E490E039D78ED216
:10067000DED201C08BD28091EB0080628093EB00D0
:1006800008958FE791E098C51F920F920FB60F92D1
:1006900011248F9380911301882341F080911301DD
:1006A000815080931301882309F45D9A809112018F
:1006B000882341F080911201815080931201882398
:1006C00009F45C9A8F910F900FBE0F901F901895B0
:1006D0001F920F920FB60F9211242F933F934F93B7
:1006E0005F936F937F938F939F93AF93BF93EF939A
:1006F000FF936091CE008EB3843089F48FB7F89465
:100700002091AA013091AB018FBF8091A8019091F7
:10071000A9012817390719F080EA91E032DEFF912C
:10072000EF91BF91AF919F918F917F916F915F9169
:100730004F913F912F910F900FBE0F901F901895E2
:100740000F931F93CF938C01DC015996EC9159972D
:10075000E150E23028F4F0E0E050FF4FC08101C0EA
:10076000C0E0F801808D823009F4C860D8015A9643
:100770008C915A97873031F0883031F0863029F4E7
:10078000C26003C0C46001C0C6605B9A1092C90019
:100790001092C8001092CA00F80124893589468950
:1007A00057892030F1EE3F07F0E04F07F0E05F0798
:1007B00081F0DA01C901B695A7959795879580587C
:1007C0009B47A14EBF4FBC01CD0160D621503040A8
:1007D00002C020E130E03093CD002093CC00C093E4
:1007E000CA00F80184899589A689B7898030F1EE1D
:1007F0009F07F0E0AF07F0E0BF0711F480E001C011
:1008000082E08093C80088E98093C9005B98CF910B
:100810001F910F910895FC01208920FF02C05F986D
:1008200008955F9A08959230B1F1933020F4913099
:1008300009F063C007C0933009F43AC09F3009F053
:100840005CC016C080912C02882349F08BB190E2E5
:1008500089278BB982E190E0E4E2F3E052C08BB1EA
:1008600090E389278BB982E190E0E6E3F3E049C0A9
:1008700080912C02882349F0E4EBF2E0849190E02F
:100880002BB130E223272BB904C0EDEEF2E08491C6
:1008900090E0329736C080912C02882349F18BB1C9
:1008A00090E289278BB987E290E0ECE3F2E029C07F
:1008B000813041F0813018F08230F9F40DC0E8E366
:1008C000F2E013C080912C02882319F0EAEDF1E0E8
:1008D0000CC0E4E0F2E009C080912C02882319F0FA
:1008E000EAE9F1E002C0EAEBF1E0849190E009C0AE
:1008F0008FE490E0E3E6F2E004C080E090E0E0E026
:10090000F0E0DA011196FC93EE93089520913702FE
:10091000309138022617370728F4B901582F492F8C
:1009200020E03EC061157105C9F72091E8002E77DF
:100930002093E800F3CF8EB3882309F448C08530B4
:1009400009F447C08091E80083FD3FC08091E80032
:1009500082FD35C08091E80080FF22C02091F20026
:1009600030E0E52FF42F2E1B3F0B05C081918093C3
:10097000F10061507040CF01820F931F6115710526
:1009800019F08830910590F321E08830910509F045
:1009900020E08091E8008E778093E8005E2F4F2F53
:1009A0006115710541F6222331F609C08EB3882303
:1009B00071F0853071F08091E80083FD0CC080916A
:1009C000E80082FFF3CF80E0089581E0089582E09F
:1009D000089583E0089581E00895209137023091D1
:1009E00038022617370728F4B901582F492F20E07D
:1009F0003FC061157105C9F72091E8002E7720935B
:100A0000E800F3CF8EB3882309F449C0853009F498
:100A100048C08091E80083FD40C08091E80082FDDD
:100A200036C08091E80080FF23C02091F20030E0C2
:100A3000E52FF42F2E1B3F0B06C084918093F1000D
:100A4000319661507040C9018E0F9F1F611571056D
:100A500019F08830910588F321E08830910509F07C
:100A600020E08091E8008E778093E8005E2F4F2F82
:100A70006115710539F6222329F609C08EB3882342
:100A800071F0853071F08091E80083FD0CC0809199
:100A9000E80082FFF3CF80E0089581E0089582E0CE
:100AA000089583E0089581E00895982F2AC09093D7
:100AB000E900981739F07091EC002091ED00509109
:100AC000F00003C0242F762F50E021FF19C0309191
:100AD000EB003E7F3093EB003091ED003D7F309393
:100AE000ED003091EB0031603093EB007093EC003F
:100AF0002093ED005093F0002091EE0027FF08C0F6
:100B00009F5F9530A0F28F708093E90081E0089597
:100B100080E008950F931F93CF93DF93162FEC017E
:100B200000E02AC09881992329F16B81E981FA813B
:100B30002C81892F8F70853018F56295660F660FAE
:100B4000607C991F9927991F692B223010F096E03D
:100B500001C092E028E030E040E003C04F5F220F88
:100B6000331F2E173F07D0F34295407F492B9DDF5F
:100B7000882331F00F5F25960117A1F681E001C0AF
:100B800080E0DF91CF911F910F9108958091310204
:100B900087FF11C003C08EB38823B1F08091E800B5
:100BA00082FFF9CF8091E8008B778093E800089569
:100BB0008EB3882349F08091E80080FFF9CF8091BF
:100BC000E8008E778093E80008958091E40090918A
:100BD000E50045E601C0C9012091EC0020FF22C0DC
:100BE0002091E80020FD14C02EB3222399F0253077
:100BF00099F02091EB0025FD11C02091E400309187
:100C0000E5002817390741F3415029F784E008959A
:100C100080E0089582E0089583E0089581E00895DA
:100C200080E008952091E80022FFDECFF9CF55D073
:100C300057D0E0EEF0E0808181608083E8EDF0E065
:100C400080818F77808319BCE3E6F0E0808181604A
:100C5000808310923002089540D042D08091D80015
:100C60008F778093D8008091D80080688093D800D7
:100C70008091D8008F7D8093D80084E089BD86E084
:100C800089BD09B400FEFDCF1EBA10922D0210924C
:100C90002F0210922E0280E060E042E006DF809199
:100CA000E1008E7F8093E1008091E200816080937B
:100CB000E2008091E20088608093E2008091E00091
:100CC0008E7F8093E0000895E3E6F0E080818E7FE0
:100CD000808381E080933002BFCF1092E2000895BC
:100CE0001092E10008951F920F920FB60F921124F7
:100CF0002F933F934F935F936F937F938F939F9324
:100D0000AF93BF93EF93FF938091E10082FF0AC0FE
:100D10008091E20082FF06C08091E1008B7F80938A
:100D2000E1002ED28091E10080FF16C08091E200A8
:100D300080FF12C08091E2008E7F8093E20080915C
:100D4000E20080618093E2008091D800806280930D
:100D5000D80019BC1EBA09DC8091E10084FF2EC0C6
:100D60008091E20084FF2AC084E089BD86E089BDCD
:100D700009B400FEFDCF8091D8008F7D8093D8000C
:100D80008091E1008F7E8093E1008091E2008F7E70
:100D90008093E2008091E20081608093E200809184
:100DA0002D02882311F084E007C08091E30087FFC3
:100DB00002C083E001C081E08EBBE2D18091E100FE
:100DC00083FF26C08091E20083FF22C08091E10072
:100DD000877F8093E10082E08EBB10922D0280918C
:100DE000E1008E7F8093E1008091E2008E7F80930E
:100DF000E2008091E20080618093E20080E060E0A8
:100E000042E053DE8091F00088608093F000B8D11A
:100E1000FF91EF91BF91AF919F918F917F916F91D2
:100E20005F914F913F912F910F900FBE0F901F90A8
:100E300018951F920F920FB60F9211242F933F9384
:100E40004F935F936F937F938F939F93AF93BF93D2
:100E5000CF93EF93FF93C091E900CF708091EC00A6
:100E60001092E9008091F000877F8093F0007894E1
:100E70001BD01092E9008091F00088608093F00010
:100E8000C093E900FF91EF91CF91BF91AF919F91F6
:100E90008F917F916F915F914F913F912F910F9023
:100EA0000FBE0F901F9018951F93CF93DF93CDB770
:100EB000DEB7AC970FB6F894DEBF0FBECDBF80E0B3
:100EC000E1E3F2E09091F10091938F5F8830D1F7E8
:100ED00055DB8091E80083FF3BC180913102209176
:100EE0003202253009F48AC0263040F42130B9F1AD
:100EF000213070F0233009F02BC131C0283009F4C3
:100F0000FAC0293009F409C1263009F021C198C07E
:100F1000803821F0823809F01BC108C080912E0270
:100F200090912F02992389F082600FC08091350241
:100F30008F70853008F00CC18093E9009091EB0030
:100F400081E095FF80E01092E9009091E800977FA2
:100F50009093E8008093F1001092F100D7C08823AD
:100F600019F0823009F0F4C090E08F719070009712
:100F700029F08230910509F0EBC00BC0809133025B
:100F8000813009F0E5C0233009F080E080932F0222
:100F90002FC080913302882359F5209135022F709C
:100FA000822F8150843008F0D3C02093E9008091D3
:100FB000EB0080FF1DC080913202833021F48091CC
:100FC000EB00806213C08091EB0080618093EB00A6
:100FD00081E090E002C0880F991F2A95E2F7809384
:100FE000EA001092EA008091EB0088608093EB00A9
:100FF0001092E9008091E800877F8BC0882309F078
:10100000A7C0109133021F778091E3008078812B75
:101010008093E3008091E800877F8093E800B6DD4D
:101020008091E80080FFFCCF8091E300806880938E
:10103000E300112311F083E001C082E08EBB88C081
:101040008058823008F084C080913302909134023D
:1010500023E08C3D9207A9F583E08C838AE28B83A1
:101060005FB7F894DE01139680E090E04EE061E215
:10107000E42FF0E060935700E49180FF03C0E29515
:10108000EF704F5FEF702E2F30E0EA3018F0295CE0
:101090003F4F02C0205D3F4F13963C932E93129713
:1010A000019612968431910519F75FBF8091E8008F
:1010B000877F8093E800CE0103966AE270E026DC29
:1010C00014C06091350270913602AE014F5F5F4FE0
:1010D000AADBBC01009709F43BC08091E800877F40
:1010E0008093E80089819A8178DC8091E8008B7791
:1010F0008093E8002DC0803859F58091E800877F03
:101100008093E80080912D028093F1008091E800A7
:101110008E778093E8003ADD1BC08823C9F4909154
:1011200033029230A8F48091E800877F8093E80032
:1011300090932D022BDD80912D02882321F4809144
:10114000E30087FF02C084E001C081E08EBB0ADAC1
:101150008091E80083FF0AC08091E800877F809338
:10116000E8008091EB0080628093EB00AC960FB6B4
:10117000F894DEBF0FBECDBFDF91CF911F910895D0
:101180000895CF938EB38823A9F08091E9008F70E2
:101190009091EC0090FF02C0C0E801C0C0E0C82BF5
:1011A0001092E9008091E80083FF01C07DDECF70DE
:1011B000C093E900CF910895CF93DF93EC01809124
:1011C000E80083FFA2C0888190E020913502309131
:1011D00036022817390709F098C08091320281320F
:1011E00069F0823220F4803209F08FC03CC0823234
:1011F00009F46AC0833209F088C079C08091310255
:10120000813A09F082C08091E800877F8093E800EE
:101210008091E80080FFFCCF8C899D89AE89BF89D1
:101220008093F100492F5A2F6B2F77274093F100BD
:10123000AD01662777274093F1008B2F9927AA27C6
:10124000BB278093F100888D8093F100898D809376
:10125000F1008A8D8093F1008091E8008E77809371
:10126000E80094DC52C080913102813209F04DC017
:101270008091E800877F8093E80004C08EB38823C4
:1012800009F443C08091E80082FFF8CF3091F1006B
:101290002091F1009091F1008091F1003C8B2D8B19
:1012A0009E8B8F8B8091F100888F8091F100898FC8
:1012B0008091F1008A8F8091E8008B778093E8001D
:1012C00065DCCE013DDA21C0809131028132E9F442
:1012D0008091E800877F8093E80058DC809133029A
:1012E00090913402998B888BCE0195DA0EC0809153
:1012F0003102813251F48091E800877F8093E800C9
:1013000045DCCE0160913302C0D0DF91CF910895CA
:10131000CF93DF93EC014096FC018BE0DF011D923F
:101320008A95E9F782E08C83898783E08E87CE01F6
:10133000019661E0EFDB882359F0CE01069661E06B
:10134000E9DB882329F0CE010B9661E0E3DB01C0E5
:1013500080E0DF91CF910895CF93FC01C62F8EB32B
:101360008430E9F4448955896689778941155105A6
:1013700061057105A1F081818F708093E9008091F2
:10138000E80085FD08C08091E8008E778093E80032
:101390001CDC882329F4C093F10080E001C082E0C6
:1013A000CF910895FC018EB3843019F54489558995
:1013B000668977894115510561057105D1F08181F3
:1013C0008F708093E9008091F2008823A1F09091C2
:1013D000E8008091E8008E778093E80095FD0DC0CD
:1013E000F4DB882359F49091E8009E779093E8000D
:1013F000089582E0089580E0089580E008952EB376
:10140000243099F4FC01448955896689778941150E
:1014100051056105710549F021812F702093E90084
:101420002091E80020FF01C0BDCF0895FC018EB3DC
:10143000843029F544895589668977894115510594
:1014400061057105E1F086818F708093E9008091DC
:10145000E80082FF17C08091F200882321F080917C
:10146000F10090E002C08FEF9FEF2091F200222365
:1014700059F42091E8002B772093E80008958FEF2E
:101480009FEF08958FEF9FEF08950895A1E21A2E20
:10149000AA1BBB1BFD010DC0AA1FBB1FEE1FFF1F18
:1014A000A217B307E407F50720F0A21BB30BE40B68
:1014B000F50B661F771F881F991F1A9469F76095AF
:1014C0007095809590959B01AC01BD01CF01089569
:1014D000F999FECF92BD81BDF89A992780B50895FC
:1014E000262FF999FECF1FBA92BD81BD20BD0FB640
:1014F000F894FA9AF99A0FBE01960895F894FFCFDE
:101500003020A120000000000200A1010000000026
:021510000000D9
:00000001FF
